:020000040800F2
:100000000004002049010008B7020008AF02000800
:10001000B302000889010008E102000800000000A6
:10002000000000000000000000000000DD020008E9
:100030008D01000800000000B9020008DF0200087E
:100040005F0100085F0100085F0100085F01000810
:100050005F0100085F0100085F0100085F01000800
:100060005F0100085F0100085F0100085F010008F0
:100070005F0100085F0100085F0100085F010008E0
:100080005F0100085F0100085F0100085F010008D0
:100090005F0100085F0100085F0100085F010008C0
:1000A0005F0100085F0100085F0100085F010008B0
:1000B0005F0100085F0100085F0100085F010008A0
:1000C0005F0100085F0100085F0100085F01000890
:1000D0005F0100085F0100085F0100085F01000880
:1000E0005F0100085F0100085F0100085F01000870
:1000F0005F0100085F0100085F0100085F01000860
:100100005F0100085F0100085F0100085F0100084F
:100110005F0100085F0100085F0100085F0100083F
:100120005F0100085F0100085F0100085F0100082F
:10013000DFF810D000F016F800480047050300086B
:10014000AFF300800004002005480047FEE7FEE70B
:10015000FEE7FEE7FEE7FEE7FEE7FEE7FEE7FEE777
:1001600031010008064C074D06E0E06840F001034D
:1001700094E8070098471034AC42F6D3FFF7DCFF51
:100180008C0300089C03000800BFFEE770472DE9C0
:10019000F04102460025002600200023002400270D
:1001A00091F803C00CF00F0591F803C00CF0100C8F
:1001B000BCF1000F03D091F802C04CEA050591F89C
:1001C00000C0BCF1000F31D0146800202BE04FF0CC
:1001D000010C0CFA00F3B1F800C00CEA03069E42D1
:1001E00020D183004FF00F0C0CFA03F7BC4305FA43
:1001F00003FC4CEA040491F803C0BCF1280F06D1BB
:100200004FF0010C0CFA00FCC2F814C00AE091F89F
:1002100003C0BCF1480F05D14FF0010C0CFA00FCF3
:10022000C2F810C0401C0828D1D31460B1F800C037
:10023000BCF1FF0F34DD546800202EE000F1080C03
:100240004FF0010808FA0CF3B1F800C00CEA0306FD
:100250009E4221D183004FF00F0C0CFA03F7BC43F0
:1002600005FA03FC4CEA040491F803C0BCF1280F22
:1002700005D100F1080C08FA0CF8C2F8148091F8C6
:1002800003C0BCF1480F07D100F1080C4FF0010882
:1002900008FA0CF8C2F81080401C0828CED354602D
:1002A000BDE8F0810AB1016100E04161704700BF23
:1002B000FEE700BFFEE770477047000029B1064A1D
:1002C00092690243044B9A6104E0034A92698243B3
:1002D000014B9A6170470000001002407047704760
:1002E00000BFFEE702E008C8121F08C1002AFAD1C9
:1002F00070477047002001E001C1121F002AFBD1A6
:100300007047000008B501211C20FFF7D7FF23200C
:10031000ADF8000010208DF8030001208DF80200D8
:1003200069461748FFF733FF0120ADF800000420AD
:100330008DF8030001208DF8020069461148FFF78F
:1003400026FF4FF40050ADF8000004208DF80300A4
:1003500001208DF8020069460B48FFF718FF0122C3
:1003600023210748FFF79EFF012223210448FFF7BE
:1003700099FF002220210248FFF794FF00BFFEE70B
:10038000000C014000080140001001409C030008DF
:0C0390000000002000040000F40200083F
:0400000508000131BD
:00000001FF
