:020000040800F2
:100000000804002049010008910400088904000840
:100010008D040008F9010008A5090008000000008F
:10002000000000000000000000000000690500085A
:10003000E102000800000000190500086B05000837
:100040005F0100085F0100085F0100085F01000810
:100050005F0100085F0100085F0100085F01000800
:100060005F0100085F0100085F0100085F010008F0
:100070005F0100085F0100085F0100085F010008E0
:100080005F0100085F0100085F0100085F010008D0
:100090005F0100085F0100085F0100085F010008C0
:1000A0005F0100085F0100085F0100085F010008B0
:1000B0005F0100085F0100085F0100085F010008A0
:1000C0005F0100085F0100085F0100085F01000890
:1000D0005F0100085F0100085F0100085F01000880
:1000E0005F0100085F0100085F0100085F01000870
:1000F0005F0100085F0100085F0100085F01000860
:100100005F0100085F0100085F0100085F0100084F
:100110005F0100085F0100086D0500085F0100082D
:100120005F0100085F0100085F0100085F0100082F
:10013000DFF810D000F016F800480047C9090008A1
:10014000AFF300800804002005480047FEE7FEE703
:10015000FEE7FEE7FEE7FEE7FEE7FEE7FEE7FEE777
:1001600031010008064C074D06E0E06840F001034D
:1001700094E8070098471034AC42F6D3FFF7DCFF51
:10018000E8090008080A00080EB50121102000F057
:10019000C5F940F29F50ADF800000D20ADF8040005
:1001A00069460A4800F0ACFB0121084800F064FAF7
:1001B0000121064800F072FA0121044800F068FAB3
:1001C00001221146014800F086FA0EBD00100040E1
:1001D00008B54FF4E06000F095F936208DF8000086
:1001E00000208DF801008DF8020001208DF8030039
:1001F000684600F04FF908BD00BFFEE708B500F003
:10020000ADF90121082000F099F901210F4800F013
:10021000F3F82020ADF8000018208DF8030003202B
:100220008DF8020069460A4800F05BF80120ADF83D
:1002300000006946064800F054F80220ADF80000BE
:100240006946034800F04DF808BD000000081A0098
:10025000000C014000B587B00121022000F05EF9DA
:100260000720ADF80000FF20ADF804000020ADF835
:100270000600ADF802006946184800F041FB012174
:10028000164800F0F9F90121144800F007FA60203F
:10029000ADF80C000120ADF80E000020ADF8120002
:1002A0000220ADF8140003A90C4800F01DFA082143
:1002B0000A4800F06BFA03A9084800F075FA082113
:1002C000064800F0C1FA03A9044800F0C7FA082163
:1002D000024800F001FB07B000BD00000004004030
:1002E00070472DE9F041024600250026002000233A
:1002F0000024002791F803C00CF00F0591F803C00B
:100300000CF0100CBCF1000F03D091F802C04CEAC5
:10031000050591F800C0BCF1000F31D01468002031
:100320002BE04FF0010C0CFA00F3B1F800C00CEA1E
:1003300003069E4220D183004FF00F0C0CFA03F706
:10034000BC4305FA03FC4CEA040491F803C0BCF179
:10035000280F06D14FF0010C0CFA00FCC2F814C0B3
:100360000AE091F803C0BCF1480F05D14FF0010C31
:100370000CFA00FCC2F810C0401C0828D1D314604D
:10038000B1F800C0BCF1FF0F34DD546800202EE04E
:1003900000F1080C4FF0010808FA0CF3B1F800C0A6
:1003A0000CEA03069E4221D183004FF00F0C0CFA99
:1003B00003F7BC4305FA03FC4CEA040491F803C0BC
:1003C000BCF1280F05D100F1080C08FA0CF8C2F8AE
:1003D000148091F803C0BCF1480F07D100F1080C5C
:1003E0004FF0010808FA0CF8C2F81080401C0828E9
:1003F000CED35460BDE8F081F0B50A460023002456
:100400000021002500F00046B6F1004F02D11D4E3C
:10041000F16901E01B4E7168C0F3034583B200F43B
:100420004016B6F5401F08D121F07061154E766870
:1004300026F07066134F7E6012E000F48016B6F569
:10044000801F06D1032606FA05F4A14341F070612E
:1004500006E0460D360103FA06F6B14341F070613D
:1004600022B1460D360103FA06F6314300F000468C
:10047000B6F1004F02D1034EF16101E0014E71600F
:10048000F0BD00000000014000BFFEE700BFFEE736
:100490007047000070B5002100230F22C47804B318
:1004A000154C246804F4E064C4F5E064210AC1F149
:1004B0000403CA40447804FA03F1847814402143C9
:1004C00009010E4C0678A155047804F01F0501249B
:1004D000AC4005786D11AD0005F1E025C5F800418F
:1004E00009E0047804F01F050124AC40044D0678AF
:1004F000761145F8264070BD0CED00E000E400E008
:1005000080E100E002490143024A116070470000A7
:100510000000FA050CED00E07047000029B1064A22
:10052000D2690243044BDA6104E0034AD269824390
:10053000014BDA61704700000010024029B1064A01
:1005400092690243044B9A6104E0034A9269824330
:10055000014B9A61704700000010024010B5012164
:100560000846FFF7EBFF10BD7047704710B501213B
:100570003C4800F09FF8002873D00121394800F072
:100580008AF83948006830B1012812D002281ED0FC
:1005900003283AD129E035480188354800F0A9F907
:1005A0000021334800F0A7F90021314800F0A5F9F7
:1005B0002CE000212E4800F09CF92C4801882C48A2
:1005C00000F099F900212A4800F097F91EE0002177
:1005D000274800F08EF90021254800F08CF92348C7
:1005E0000188234800F089F910E02048018820485C
:1005F00000F07FF91D4801881D4800F07CF91B4878
:1006000001881B4800F079F900E000BF00BF1948DD
:10061000007870B115480088401C144908800846CD
:100620000088FA281DDBFA20088000201149087094
:1006300017E00E480088401E0C49088008460088D4
:1006400078B90020088001200A4908700649096825
:10065000481CC11700EB91718910A0EB8101024A7F
:10066000116010BD001000400400002000000020B8
:10067000000400400200002021B1028842F0800204
:10068000028004E002884FF67F731A4002807047B0
:10069000CA4302827047CA430282704721B102886E
:1006A00042F00102028004E002884FF6FE731A4015
:1006B0000280704730B50246002000230024158ACE
:1006C00005EA0103958905EA010413B10CB1012083
:1006D00000E0002030BD1AB183890B43838102E022
:1006E00083898B438381704770B5002400220023E7
:1006F000058C4FF6EF7635400584028C8388048B99
:1007000048F6FF752C404FF6FF452C400D884FF6FC
:10071000FF7606EA05252C434FF6DF752A400D8942
:1007200006EA05152A434D8806EA05152A43154DA4
:10073000A84202D0144DA8421DD14FF67F752A4021
:100740004D894FF6FF7606EA05152A434FF6BF7529
:100750002A408D8806EA05152A434FF6FF352B40BF
:100760004FF2FF752B408D8906EA85052B43CD8915
:1007700006EA85052B4383800483CD8805870284A0
:1007800070BD0000002C0140003401400A460021E9
:10079000018B4FF2FF7319404FF6FF7303EA0223F8
:1007A000194301837047000070B500240022002324
:1007B000058C4FF6FF6635400584028C8388848B58
:1007C0004FF68F752C404FF6FC752C400D882C434E
:1007D0004FF6FF552A400D894FF6FF7606EA0525AC
:1007E0002A434D8806EA05252A43154DA84202D022
:1007F000144DA8421DD14FF2FF752A404D894FF686
:10080000FF7606EA05252A434FF6FF352A408D88F4
:1008100006EA05252A434EF6FF752B404DF6FF7577
:100820002B408D8906EA05152B43CD8906EA05156F
:100830002B4383808483CD888587028470BD00002C
:10084000002C0140003401400A460021818B4FF604
:10085000F7731940114381837047000070B500227F
:1008600000230024058C4EF6FF7635400584038C6A
:100870008488828B48F6FF752A404FF6FF452A4050
:100880000D884FF6FF7606EA05252A434DF6FF75DB
:100890002B400D8906EA05352B434D8806EA0535C0
:1008A0002B430B4DA84202D00A4DA84208D14BF66B
:1008B000FF752C408D894FF6FF7606EA85152C438F
:1008C00084808283CD88A0F84050038470BD0000EE
:1008D000002C0140003401400A460021818B4FF278
:1008E000FF7319404FF6FF7303EA02231943818314
:1008F00070470187704781877047A0F840107047A4
:10090000002202881D4B98420ED01D4B98420BD0FE
:10091000B0F1804F08D01B4B984205D01A4B98423B
:1009200002D01A4B984204D14FF68F731A404B886D
:100930001A43174B984207D0164B984204D04FF6F3
:10094000FF431A40CB881A4302808B8883850B882B
:1009500003850A4B98420BD0094B984208D00E4BA6
:10096000984205D00D4B984202D00D4B984201D1D0
:100970000B7A03860123838270470000002C01401C
:10098000003401400004004000080040000C00401A
:1009900000100040001400400040014000440140AD
:1009A0000048014000BFFEE702E008C8121F08C16E
:1009B000002AFAD170477047002001E001C1121FE0
:1009C000002AFBD170470000FFF718FCFFF742FC3C
:1009D000FFF7DAFBFFF7FCFB01210248FFF75EFEA1
:1009E00000BFFEE700100040080A000800000020D9
:1009F00008000000A8090008100A000808000020EC
:100A000000040000B8090008000001000000000018
:0400000508000131BD
:00000001FF
