:020000040800F2
:1000000018040020490100085D0500085505000896
:1000100059050008990100081908000800000000AF
:10002000000000000000000000000000750600084D
:100030003D030008000000005F0500087706000887
:100040005F0100085F0100085F0100085F01000810
:100050005F0100085F0100085F0100085F01000800
:100060005F0100085F0100085F0100085F010008F0
:100070005F0100085F0100085F0100085F010008E0
:100080005F0100085F0100085F0100085F010008D0
:100090005F0100085F0100085F0100085F010008C0
:1000A0005F0100085F0100085F0100085F010008B0
:1000B0005F0100085F0100085F0100085F010008A0
:1000C0005F0100085F0100085F0100085F01000890
:1000D0005F0100085F0100085F0100085F01000880
:1000E0005F0100085F0100085F0100085F01000870
:1000F0005F0100085F0100085F0100085F01000860
:100100005F0100085F0100085F0100085F0100084F
:100110005F0100085F0100085F0100085F0100083F
:100120005F0100085F0100085F0100085F0100082F
:10013000DFF810D000F01EF800480047D90800088A
:10014000AFF300801804002005480047FEE7FEE7F3
:10015000FEE7FEE7FEE7FEE7FEE7FEE7FEE7FEE777
:1001600031010008421C10F8011B0029FBD1801A44
:1001700070470000064C074D06E0E06840F00103C0
:1001800094E8070098471034AC42F6D3FFF7D4FF49
:10019000680900088809000800BFFEE721B102686D
:1001A00042F00102026004E002684FF6FE731A405A
:1001B0000260704701684FF6FE7211400160002135
:1001C000016041608160C1604B49884208D14A4961
:1001D0000839496841F00F01474A083A51608AE0FE
:1001E00045491431884208D143490839496841F0EA
:1001F000F001414A083A51607DE03F492831884288
:1002000008D13D490839496841F470613A4A083AD1
:10021000516070E038493C31884208D1364908398C
:10022000496841F47041344A083A516063E0324908
:100230005031884208D130490839496841F4702169
:100240002D4A083A516056E02B496431884208D162
:1002500029490839496841F47001274A083A516030
:1002600049E025497831884208D12349083949684D
:1002700041F07061204A083A51603CE01F498842D1
:1002800006D1011F096841F00F01021F116032E021
:100290001A491431884208D11849091F096841F0E8
:1002A000F001164A121F116025E0144928318842D6
:1002B00008D11249091F096841F470610F4A121FE1
:1002C000116018E00D493C31884208D10B49091FE3
:1002D000096841F47041094A121F11600BE0074997
:1002E0005031884207D10549091F096841F470213E
:1002F000024A121F116070470800024008040240C1
:1003000010B50022026847F6F0739A430C6A8B68B6
:1003100023430C6923434C6923438C692343CC69F1
:1003200023434C6A23438C6A23431A430260CB68FD
:1003300043600B6883604B68C36010BD704700006A
:100340000149C860704700000020024004200B49AA
:10035000C96801F0010109B101200EE00749C9682F
:1003600001F0040109B1022007E00449C96801F065
:10037000100109B1032000E0042070470020024072
:100380000348006940F0800001490861704700009F
:100390000020024078B506460C4604250020009057
:1003A000E80200F039F80546042D24D1134800690D
:1003B00040F00100114908613480E80200F02CF897
:1003C0000546042D10D1B01C0090200C0099088027
:1003D000E80200F021F805460848006941F6FE7180
:1003E00008400649086106E00448006941F6FE71CC
:1003F000084002490861284678BD000000200240FC
:100400000248034948600348486070472301674534
:1004100000200240AB89EFCD00B502460423FFF770
:1004200095FF034603E0FFF791FF0346521E012BA1
:1004300001D1002AF7D102B90523184600BD2DE9E4
:10044000F04102460025002600200023002400275A
:1004500091F803C00CF00F0591F803C00CF0100CDC
:10046000BCF1000F03D091F802C04CEA050591F8E9
:1004700000C0BCF1000F31D0146800202BE04FF019
:10048000010C0CFA00F3B1F800C00CEA03069E421E
:1004900020D183004FF00F0C0CFA03F7BC4305FA90
:1004A00003FC4CEA040491F803C0BCF1280F06D108
:1004B0004FF0010C0CFA00FCC2F814C00AE091F8ED
:1004C00003C0BCF1480F05D14FF0010C0CFA00FC41
:1004D000C2F810C0401C0828D1D31460B1F800C085
:1004E000BCF1FF0F34DD546800202EE000F1080C51
:1004F0004FF0010808FA0CF3B1F800C00CEA03064B
:100500009E4221D183004FF00F0C0CFA03F7BC433D
:1005100005FA03FC4CEA040491F803C0BCF1280F6F
:1005200005D100F1080C08FA0CF8C2F8148091F813
:1005300003C0BCF1480F07D100F1080C4FF00108CF
:1005400008FA0CF8C2F81080401C0828CED354607A
:10055000BDE8F08100BFFEE700BFFEE770477047CF
:1005600029B1064A52690243044B5A6104E0034A26
:1005700052698243014B5A617047000000100240EB
:1005800029B1064A92690243044B9A6104E0034A86
:1005900092698243014B9A6170470000001002404B
:1005A00030B500210022002400232D4D6D6805F098
:1005B0000C0121B1042905D0082923D105E0294DDA
:1005C000056022E0274D05601FE0254D6D6805F4AC
:1005D0007012234D6D6805F48034022505EB9242BC
:1005E0001CB9214D554305600BE01D4D6D6805F4A8
:1005F00000351DB11C4D5543056002E0194D5543B2
:10060000056002E0174D056000BF00BF144D6D6826
:1006100005F0F0010909154D6B5C0568DD4045608A
:100620000F4D6D6805F4E061090A104D6B5C45687B
:10063000DD4085600A4D6D6805F46051C90A0B4DB7
:100640006B5C4568DD40C560054D6D6805F4404153
:10065000890B074D6B5CC568B5FBF3F5056130BDD3
:100660000010024000127A0000093D000000002046
:10067000100000207047704721B1828942F4005277
:10068000828104E082894DF6FF731A4082817047AF
:1006900000B585B0012144F20400FFF771FF4FF46B
:1006A0000070ADF8000018208DF8030003208DF8CD
:1006B000020069461348FFF7C2FE4FF48060ADF8B0
:1006C000000004208DF8030069460E48FFF7B7FECE
:1006D0004FF4165001900020ADF80800ADF80A0064
:1006E000ADF80C00ADF810000C20ADF80E0001A91B
:1006F000054800F021F801210348FFF7BDFF05B0D0
:1007000000BD000000080140003801401AB1838A92
:100710000B43838202E0838A8B43838270470246C5
:100720000020B1F5007F00D100BF13880B400BB152
:10073000012000E0002070472DE9F04786B0054613
:100740000E460024A24600BFA1460027B08900B192
:1007500000BF2F462C8A4CF6FF700440F0880443FB
:100760002C82AC894EF6F3100440B08831890843DE
:10077000718908430443AC81AC8A4FF6FF400440C2
:10078000B0890443AC8201A8FFF70AFF1F488742E3
:1007900002D1DDF810A001E0DDF80CA0A88900F47A
:1007A000004040B10AEBCA0000EB0A103168490072
:1007B000B0FBF1F807E00AEBCA0000EB0A10316861
:1007C0008900B0FBF1F86420B8FBF0F004012009C7
:1007D000642101FB1089A88900F4004040B1322057
:1007E00000EBC900B0FBF1F000F00700044308E0A3
:1007F000322000EB09106421B0FBF1F000F00F0093
:1008000004432C8106B0BDE8F087000000380140A9
:10081000C1F308028280704700BFFEE770B504464E
:100820000D4629462046FFF7F3FF00BF80212046F2
:10083000FFF775FF0028F9D070BD70B505460C466E
:1008400004E014F8011B2846FFF7E8FF2078002891
:10085000F7D170BD30B58BB005460C460121084676
:10086000FFF77EFE1348FFF7A5FC281D00900194BA
:10087000102002902046FFF775FC039000200490A2
:100880008020059000200690079008904FF40050BB
:10089000099000200A9069460648FFF731FD0122C1
:1008A00080212846FFF732FF01210248FFF776FC3E
:1008B0000BB030BD4400024002E008C8121F08C15E
:1008C000002AFAD170477047002001E001C1121FD1
:1008D000002AFBD1704700000F4D10A63446FFF7E9
:1008E000D7FE1BA11F48FFF7A8FFFFF789FD3420A3
:1008F000FFF726FD05E021782846FFF74BFD2D1D6B
:10090000641C20780028F6D1FFF73AFD31461548DF
:10091000FFF7A0FF00BFFEE70080000849276D2019
:1009200066696E652C205468616E6B20796F752145
:1009300020416E6420553F2873656E64696E6720A0
:1009400066726F6D20464C4153482129000000001B
:1009500048656C6C6F2120486F7720617265205567
:100960003F00000000380140880900080000002016
:1009700014000000B80800089C09000814000020BA
:1009800004040000C808000800000000010203047D
:0C0990000102030406070809020406081F
:0400000508000131BD
:00000001FF
