:020000040800F2
:100000001804002049010008AD0300080F03000890
:10001000A9030008E10100085F04000800000000D7
:10002000000000000000000000000000D1030008F4
:10003000E501000800000000AF0300085D040008AF
:100040005F0100085F0100085F0100085F01000810
:100050005F0100085F0100085F0100085F01000800
:100060005F0100085F0100085F0100085F010008F0
:100070005F0100085F0100085F0100085F010008E0
:100080005F0100085F0100085F0100085F010008D0
:100090005F0100085F0100085F0100085F010008C0
:1000A0005F0100085F0100085F0100085F010008B0
:1000B0005F0100085F0100085F0100085F010008A0
:1000C0005F0100085F0100085F0100085F01000890
:1000D0005F0100085F0100085F0100085F01000880
:1000E0005F0100085F0100085F0100085F01000870
:1000F0005F0100085F0100085F0100085F01000860
:100100005F0100085F0100085F0100085F0100084F
:100110005F0100085F0100085F0100085F0100083F
:100120005F0100085F0100085F0100085F0100082F
:10013000DFF810D000F016F80048004781040008EE
:10014000AFF300801804002005480047FEE7FEE7F3
:10015000FEE7FEE7FEE7FEE7FEE7FEE7FEE7FEE777
:1001600031010008064C074D06E0E06840F001034D
:1001700094E8070098471034AC42F6D3FFF7DCFF51
:10018000D4040008F404000810B50446012C04D17E
:100190000102054800F0B4F804E04FF48071024811
:1001A00000F0ACF810BD00000008014008B50121C6
:1001B000042000F0FDF84FF48070ADF8000010202E
:1001C0008DF8030003208DF802006946034800F013
:1001D0000AF80020FFF7D8FF08BD00000008014022
:1001E00000BFFEE770472DE9F041024600250026DA
:1001F000002000230024002791F803C00CF00F0515
:1002000091F803C00CF0100CBCF1000F03D091F872
:1002100002C04CEA050591F800C0BCF1000F31D0D6
:10022000146800202BE04FF0010C0CFA00F3B1F839
:1002300000C00CEA03069E4220D183004FF00F0C51
:100240000CFA03F7BC4305FA03FC4CEA040491F8EA
:1002500003C0BCF1280F06D14FF0010C0CFA00FCD2
:10026000C2F814C00AE091F803C0BCF1480F05D1F0
:100270004FF0010C0CFA00FCC2F810C0401C08281A
:10028000D1D31460B1F800C0BCF1FF0F34DD546865
:1002900000202EE000F1080C4FF0010808FA0CF3E2
:1002A000B1F800C00CEA03069E4221D183004FF052
:1002B0000F0C0CFA03F7BC4305FA03FC4CEA0404E8
:1002C00091F803C0BCF1280F05D100F1080C08FA21
:1002D0000CF8C2F8148091F803C0BCF1480F07D1A4
:1002E00000F1080C4FF0010808FA0CF8C2F8108071
:1002F000401C0828CED35460BDE8F08141617047AE
:10030000016170470AB1016100E04161704700BFBF
:10031000FEE7000010B5002220210248FFF7F2FF9F
:1003200010BD0000000C014008B501211C2000F0A8
:100330003FF82320ADF8000010208DF803000120C5
:100340008DF8020069461048FFF74DFF0120ADF817
:10035000000004208DF8030001208DF8020069469A
:100360000A48FFF740FF4FF40050ADF800000420AA
:100370008DF8030001208DF8020069460448FFF75C
:1003800032FF00F007F808BD000C014000080140F2
:100390000010014010B5012223210248FFF7B2FFEF
:1003A00010BD0000000C014000BFFEE77047704721
:1003B00029B1064A92690243044B9A6104E0034A58
:1003C00092698243014B9A6170470000001002401D
:1003D00070470000F0B504461D4800684FF47A737A
:1003E000B0FBF3F2B2F1807F00D31DE022F07F403A
:1003F000401E4FF0E023586158170F23002807DAFA
:100400001D072F0E134D00F00F06361FAF5503E0EA
:100410001D072E0E104D2E5400BF00204FF0E0237C
:1004200098610720186100BF002108E000BF4FF06D
:10043000E020006900F480300028F8D0491CA14277
:10044000F4D300204FF0E02210615061F0BD0000B5
:100450000000002018ED00E000E400E0704700BF5D
:10046000FEE702E008C8121F08C1002AFAD170474F
:100470007047002001E001C1121F002AFBD1704724
:1004800010B50024FFF750FFFFF790FE11E0FFF7D3
:1004900041FF0120FFF778FE1920FFF79BFFFFF7D0
:1004A00079FF0020FFF770FE6420FFF793FF601CC8
:1004B000C4B2042CEBDBFFF72DFF0120FFF764FE35
:1004C0006420FFF787FF0020FFF75EFEFFF762FF63
:1004D000002010BDF40400080000002014000000FB
:1004E000620400080805000814000020040400004D
:1004F0007204000800A24A0400000000000000008E
:080500000102030406070809CB
:0400000508000131BD
:00000001FF
